{
  "_format": "hh3-artifact-1",
  "contractName": "ShibaInuStyleToken",
  "sourceName": "contracts/ShibaInuStyleToken.sol",
  "abi": [
    {
      "inputs": [
        {
          "internalType": "string",
          "name": "name",
          "type": "string"
        },
        {
          "internalType": "string",
          "name": "symbol",
          "type": "string"
        },
        {
          "internalType": "uint256",
          "name": "initialSupply",
          "type": "uint256"
        },
        {
          "internalType": "address",
          "name": "_marketingWallet",
          "type": "address"
        }
      ],
      "stateMutability": "nonpayable",
      "type": "constructor"
    },
    {
      "inputs": [
        {
          "internalType": "address",
          "name": "spender",
          "type": "address"
        },
        {
          "internalType": "uint256",
          "name": "allowance",
          "type": "uint256"
        },
        {
          "internalType": "uint256",
          "name": "needed",
          "type": "uint256"
        }
      ],
      "name": "ERC20InsufficientAllowance",
      "type": "error"
    },
    {
      "inputs": [
        {
          "internalType": "address",
          "name": "sender",
          "type": "address"
        },
        {
          "internalType": "uint256",
          "name": "balance",
          "type": "uint256"
        },
        {
          "internalType": "uint256",
          "name": "needed",
          "type": "uint256"
        }
      ],
      "name": "ERC20InsufficientBalance",
      "type": "error"
    },
    {
      "inputs": [
        {
          "internalType": "address",
          "name": "approver",
          "type": "address"
        }
      ],
      "name": "ERC20InvalidApprover",
      "type": "error"
    },
    {
      "inputs": [
        {
          "internalType": "address",
          "name": "receiver",
          "type": "address"
        }
      ],
      "name": "ERC20InvalidReceiver",
      "type": "error"
    },
    {
      "inputs": [
        {
          "internalType": "address",
          "name": "sender",
          "type": "address"
        }
      ],
      "name": "ERC20InvalidSender",
      "type": "error"
    },
    {
      "inputs": [
        {
          "internalType": "address",
          "name": "spender",
          "type": "address"
        }
      ],
      "name": "ERC20InvalidSpender",
      "type": "error"
    },
    {
      "inputs": [
        {
          "internalType": "address",
          "name": "owner",
          "type": "address"
        }
      ],
      "name": "OwnableInvalidOwner",
      "type": "error"
    },
    {
      "inputs": [
        {
          "internalType": "address",
          "name": "account",
          "type": "address"
        }
      ],
      "name": "OwnableUnauthorizedAccount",
      "type": "error"
    },
    {
      "anonymous": false,
      "inputs": [
        {
          "indexed": true,
          "internalType": "address",
          "name": "owner",
          "type": "address"
        },
        {
          "indexed": true,
          "internalType": "address",
          "name": "spender",
          "type": "address"
        },
        {
          "indexed": false,
          "internalType": "uint256",
          "name": "value",
          "type": "uint256"
        }
      ],
      "name": "Approval",
      "type": "event"
    },
    {
      "anonymous": false,
      "inputs": [
        {
          "indexed": true,
          "internalType": "address",
          "name": "previousOwner",
          "type": "address"
        },
        {
          "indexed": true,
          "internalType": "address",
          "name": "newOwner",
          "type": "address"
        }
      ],
      "name": "OwnershipTransferred",
      "type": "event"
    },
    {
      "anonymous": false,
      "inputs": [
        {
          "indexed": true,
          "internalType": "address",
          "name": "pair",
          "type": "address"
        },
        {
          "indexed": true,
          "internalType": "bool",
          "name": "value",
          "type": "bool"
        }
      ],
      "name": "SetAutomatedMarketMakerPair",
      "type": "event"
    },
    {
      "anonymous": false,
      "inputs": [
        {
          "indexed": false,
          "internalType": "uint256",
          "name": "tokensSwapped",
          "type": "uint256"
        },
        {
          "indexed": false,
          "internalType": "uint256",
          "name": "ethReceived",
          "type": "uint256"
        },
        {
          "indexed": false,
          "internalType": "uint256",
          "name": "tokensIntoLiquidity",
          "type": "uint256"
        }
      ],
      "name": "SwapAndLiquify",
      "type": "event"
    },
    {
      "anonymous": false,
      "inputs": [
        {
          "indexed": true,
          "internalType": "address",
          "name": "from",
          "type": "address"
        },
        {
          "indexed": true,
          "internalType": "address",
          "name": "to",
          "type": "address"
        },
        {
          "indexed": false,
          "internalType": "uint256",
          "name": "value",
          "type": "uint256"
        }
      ],
      "name": "Transfer",
      "type": "event"
    },
    {
      "inputs": [
        {
          "internalType": "address",
          "name": "owner",
          "type": "address"
        },
        {
          "internalType": "address",
          "name": "spender",
          "type": "address"
        }
      ],
      "name": "allowance",
      "outputs": [
        {
          "internalType": "uint256",
          "name": "",
          "type": "uint256"
        }
      ],
      "stateMutability": "view",
      "type": "function"
    },
    {
      "inputs": [
        {
          "internalType": "address",
          "name": "spender",
          "type": "address"
        },
        {
          "internalType": "uint256",
          "name": "value",
          "type": "uint256"
        }
      ],
      "name": "approve",
      "outputs": [
        {
          "internalType": "bool",
          "name": "",
          "type": "bool"
        }
      ],
      "stateMutability": "nonpayable",
      "type": "function"
    },
    {
      "inputs": [
        {
          "internalType": "address",
          "name": "",
          "type": "address"
        }
      ],
      "name": "automatedMarketMakerPairs",
      "outputs": [
        {
          "internalType": "bool",
          "name": "",
          "type": "bool"
        }
      ],
      "stateMutability": "view",
      "type": "function"
    },
    {
      "inputs": [
        {
          "internalType": "address",
          "name": "account",
          "type": "address"
        }
      ],
      "name": "balanceOf",
      "outputs": [
        {
          "internalType": "uint256",
          "name": "",
          "type": "uint256"
        }
      ],
      "stateMutability": "view",
      "type": "function"
    },
    {
      "inputs": [],
      "name": "buyTax",
      "outputs": [
        {
          "internalType": "uint256",
          "name": "",
          "type": "uint256"
        }
      ],
      "stateMutability": "view",
      "type": "function"
    },
    {
      "inputs": [],
      "name": "decimals",
      "outputs": [
        {
          "internalType": "uint8",
          "name": "",
          "type": "uint8"
        }
      ],
      "stateMutability": "view",
      "type": "function"
    },
    {
      "inputs": [
        {
          "internalType": "address",
          "name": "",
          "type": "address"
        }
      ],
      "name": "isExcludeFromLimit",
      "outputs": [
        {
          "internalType": "bool",
          "name": "",
          "type": "bool"
        }
      ],
      "stateMutability": "view",
      "type": "function"
    },
    {
      "inputs": [
        {
          "internalType": "address",
          "name": "",
          "type": "address"
        }
      ],
      "name": "isExcludeFromTax",
      "outputs": [
        {
          "internalType": "bool",
          "name": "",
          "type": "bool"
        }
      ],
      "stateMutability": "view",
      "type": "function"
    },
    {
      "inputs": [],
      "name": "lpWallet",
      "outputs": [
        {
          "internalType": "address",
          "name": "",
          "type": "address"
        }
      ],
      "stateMutability": "view",
      "type": "function"
    },
    {
      "inputs": [],
      "name": "marketingWallet",
      "outputs": [
        {
          "internalType": "address",
          "name": "",
          "type": "address"
        }
      ],
      "stateMutability": "view",
      "type": "function"
    },
    {
      "inputs": [],
      "name": "maxTransactionAmount",
      "outputs": [
        {
          "internalType": "uint256",
          "name": "",
          "type": "uint256"
        }
      ],
      "stateMutability": "view",
      "type": "function"
    },
    {
      "inputs": [],
      "name": "maxWalletAmount",
      "outputs": [
        {
          "internalType": "uint256",
          "name": "",
          "type": "uint256"
        }
      ],
      "stateMutability": "view",
      "type": "function"
    },
    {
      "inputs": [],
      "name": "name",
      "outputs": [
        {
          "internalType": "string",
          "name": "",
          "type": "string"
        }
      ],
      "stateMutability": "view",
      "type": "function"
    },
    {
      "inputs": [],
      "name": "owner",
      "outputs": [
        {
          "internalType": "address",
          "name": "",
          "type": "address"
        }
      ],
      "stateMutability": "view",
      "type": "function"
    },
    {
      "inputs": [],
      "name": "renounceOwnership",
      "outputs": [],
      "stateMutability": "nonpayable",
      "type": "function"
    },
    {
      "inputs": [],
      "name": "sellTax",
      "outputs": [
        {
          "internalType": "uint256",
          "name": "",
          "type": "uint256"
        }
      ],
      "stateMutability": "view",
      "type": "function"
    },
    {
      "inputs": [
        {
          "internalType": "address",
          "name": "pair",
          "type": "address"
        },
        {
          "internalType": "bool",
          "name": "value",
          "type": "bool"
        }
      ],
      "name": "setAutomatedMarketMakerPair",
      "outputs": [],
      "stateMutability": "nonpayable",
      "type": "function"
    },
    {
      "inputs": [
        {
          "internalType": "address",
          "name": "account",
          "type": "address"
        },
        {
          "internalType": "bool",
          "name": "exluded",
          "type": "bool"
        }
      ],
      "name": "setExludeFromLimit",
      "outputs": [],
      "stateMutability": "nonpayable",
      "type": "function"
    },
    {
      "inputs": [
        {
          "internalType": "address",
          "name": "account",
          "type": "address"
        },
        {
          "internalType": "bool",
          "name": "exluded",
          "type": "bool"
        }
      ],
      "name": "setExludeFromTax",
      "outputs": [],
      "stateMutability": "nonpayable",
      "type": "function"
    },
    {
      "inputs": [
        {
          "internalType": "uint256",
          "name": "_buyTax",
          "type": "uint256"
        },
        {
          "internalType": "uint256",
          "name": "_sellTax",
          "type": "uint256"
        }
      ],
      "name": "setTax",
      "outputs": [],
      "stateMutability": "nonpayable",
      "type": "function"
    },
    {
      "inputs": [],
      "name": "symbol",
      "outputs": [
        {
          "internalType": "string",
          "name": "",
          "type": "string"
        }
      ],
      "stateMutability": "view",
      "type": "function"
    },
    {
      "inputs": [],
      "name": "totalSupply",
      "outputs": [
        {
          "internalType": "uint256",
          "name": "",
          "type": "uint256"
        }
      ],
      "stateMutability": "view",
      "type": "function"
    },
    {
      "inputs": [
        {
          "internalType": "address",
          "name": "to",
          "type": "address"
        },
        {
          "internalType": "uint256",
          "name": "value",
          "type": "uint256"
        }
      ],
      "name": "transfer",
      "outputs": [
        {
          "internalType": "bool",
          "name": "",
          "type": "bool"
        }
      ],
      "stateMutability": "nonpayable",
      "type": "function"
    },
    {
      "inputs": [
        {
          "internalType": "address",
          "name": "from",
          "type": "address"
        },
        {
          "internalType": "address",
          "name": "to",
          "type": "address"
        },
        {
          "internalType": "uint256",
          "name": "value",
          "type": "uint256"
        }
      ],
      "name": "transferFrom",
      "outputs": [
        {
          "internalType": "bool",
          "name": "",
          "type": "bool"
        }
      ],
      "stateMutability": "nonpayable",
      "type": "function"
    },
    {
      "inputs": [
        {
          "internalType": "address",
          "name": "newOwner",
          "type": "address"
        }
      ],
      "name": "transferOwnership",
      "outputs": [],
      "stateMutability": "nonpayable",
      "type": "function"
    },
    {
      "inputs": [
        {
          "internalType": "uint256",
          "name": "newMaxTx",
          "type": "uint256"
        },
        {
          "internalType": "uint256",
          "name": "newMaxWallet",
          "type": "uint256"
        }
      ],
      "name": "updateLimits",
      "outputs": [],
      "stateMutability": "nonpayable",
      "type": "function"
    }
  ],
  "bytecode": "0x608060405260056006556005600755348015610019575f5ffd5b50604051611906380380611906833981016040819052610038916106bc565b338484600361004783826107cc565b50600461005482826107cc565b5050506001600160a01b03811661008557604051631e4fbdf760e01b81525f60048201526024015b60405180910390fd5b61008e81610144565b50600880546001600160a01b0319166001600160a01b0383161790555f6100b3601290565b6100be90600a61097f565b6100c89084610994565b90506100d43382610195565b60646100e1826001610994565b6100eb91906109ab565b600a5560646100fb826002610994565b61010591906109ab565b600b555050335f908152600d602090815260408083208054600160ff199182168117909255600c909352922080549091169091179055506109f0915050565b600580546001600160a01b038381166001600160a01b0319831681179093556040519116919082907f8be0079c531659141344cd1fd0a4f28419497f9722a3daafe3b4186f6b6457e0905f90a35050565b6001600160a01b0382166101be5760405163ec442f0560e01b81525f600482015260240161007c565b6101c95f83836101cd565b5050565b6001600160a01b03831615806101ea57506001600160a01b038216155b156101ff576101fa8383836104f9565b505050565b6001600160a01b03831661024e5760405162461bcd60e51b8152602060048201526024808201525f5160206118e65f395f51905f526044820152637265737360e01b606482015260840161007c565b6001600160a01b03821661029d5760405162461bcd60e51b8152602060048201526024808201525f5160206118e65f395f51905f526044820152637265737360e01b606482015260840161007c565b6001600160a01b0383165f908152600d602052604090205460ff161580156102dd57506001600160a01b0383165f908152600d602052604090205460ff16155b1561040e57600a5481106103485760405162461bcd60e51b815260206004820152602c60248201527f5472616e7366657220616d6f756e742065786365656473206d61785472616e7360448201526b1858dd1a5bdb905b5bdd5b9d60a21b606482015260840161007c565b6001600160a01b0382165f908152600e602052604090205460ff168061038557506001600160a01b0383165f908152600e602052604090205460ff165b1561040e57600b54816103ac846001600160a01b03165f9081526020819052604090205490565b6103b691906109ca565b111561040e5760405162461bcd60e51b815260206004820152602160248201527f52656369706965742065786365656473206d61782077616c657420616d6f756e6044820152601d60fa1b606482015260840161007c565b6001600160a01b0383165f908152600d602052604081205460ff1615801561044e57506001600160a01b0383165f908152600c602052604090205460ff16155b156104b1576001600160a01b0384165f908152600e602052604090205460ff1615610494576064600654836104839190610994565b61048d91906109ab565b90506104b1565b6064600754836104a49190610994565b6104ae91906109ab565b90505b80156104e8576008546104cf9085906001600160a01b0316836104f9565b6104e384846104de84866109dd565b6104f9565b6104f3565b6104f38484846104f9565b50505050565b6001600160a01b038316610523578060025f82825461051891906109ca565b909155506105939050565b6001600160a01b0383165f90815260208190526040902054818110156105755760405163391434e360e21b81526001600160a01b0385166004820152602481018290526044810183905260640161007c565b6001600160a01b0384165f9081526020819052604090209082900390555b6001600160a01b0382166105af576002805482900390556105cd565b6001600160a01b0382165f9081526020819052604090208054820190555b816001600160a01b0316836001600160a01b03167fddf252ad1be2c89b69c2b068fc378daa952ba7f163c4a11628f55a4df523b3ef8360405161061291815260200190565b60405180910390a3505050565b634e487b7160e01b5f52604160045260245ffd5b5f82601f830112610642575f5ffd5b81516001600160401b0381111561065b5761065b61061f565b604051601f8201601f19908116603f011681016001600160401b03811182821017156106895761068961061f565b6040528181528382016020018510156106a0575f5ffd5b8160208501602083015e5f918101602001919091529392505050565b5f5f5f5f608085870312156106cf575f5ffd5b84516001600160401b038111156106e4575f5ffd5b6106f087828801610633565b602087015190955090506001600160401b0381111561070d575f5ffd5b61071987828801610633565b60408701516060880151919550935090506001600160a01b038116811461073e575f5ffd5b939692955090935050565b600181811c9082168061075d57607f821691505b60208210810361077b57634e487b7160e01b5f52602260045260245ffd5b50919050565b601f8211156101fa57805f5260205f20601f840160051c810160208510156107a65750805b601f840160051c820191505b818110156107c5575f81556001016107b2565b5050505050565b81516001600160401b038111156107e5576107e561061f565b6107f9816107f38454610749565b84610781565b6020601f82116001811461082b575f83156108145750848201515b5f19600385901b1c1916600184901b1784556107c5565b5f84815260208120601f198516915b8281101561085a578785015182556020948501946001909201910161083a565b508482101561087757868401515f19600387901b60f8161c191681555b50505050600190811b01905550565b634e487b7160e01b5f52601160045260245ffd5b6001815b60018411156108d5578085048111156108b9576108b9610886565b60018416156108c757908102905b60019390931c92800261089e565b935093915050565b5f826108eb57506001610979565b816108f757505f610979565b816001811461090d576002811461091757610933565b6001915050610979565b60ff84111561092857610928610886565b50506001821b610979565b5060208310610133831016604e8410600b8410161715610956575081810a610979565b6109625f19848461089a565b805f190482111561097557610975610886565b0290505b92915050565b5f61098d60ff8416836108dd565b9392505050565b808202811582820484141761097957610979610886565b5f826109c557634e487b7160e01b5f52601260045260245ffd5b500490565b8082018082111561097957610979610886565b8181038181111561097957610979610886565b610ee9806109fd5f395ff3fe608060405234801561000f575f5ffd5b5060043610610187575f3560e01c80638da5cb5b116100d9578063a9059cbb11610093578063c8c8ebe41161006e578063c8c8ebe414610373578063cc1776d31461037c578063dd62ed3e14610385578063f2fde38b146103bd575f5ffd5b8063a9059cbb14610335578063aa4bde2814610348578063b62496f514610351575f5ffd5b80638da5cb5b146102b257806395d89b41146102c3578063961cc9f8146102cb5780639a7a23d6146102ed578063a2240e1914610300578063a365269114610313575f5ffd5b80634f7041a511610144578063667f65261161011f578063667f65261461025c57806370a082311461026f578063715018a61461029757806375f0a8741461029f575f5ffd5b80634f7041a51461021557806356ce38d71461021e5780636303516c14610231575f5ffd5b806306fdde031461018b578063095ea7b3146101a957806318160ddd146101cc57806323b872dd146101de578063313ce567146101f157806336e6bbf614610200575b5f5ffd5b6101936103d0565b6040516101a09190610c6b565b60405180910390f35b6101bc6101b7366004610cbb565b610460565b60405190151581526020016101a0565b6002545b6040519081526020016101a0565b6101bc6101ec366004610ce3565b610479565b604051601281526020016101a0565b61021361020e366004610d1d565b61049c565b005b6101d060065481565b61021361022c366004610d1d565b6104ce565b600954610244906001600160a01b031681565b6040516001600160a01b0390911681526020016101a0565b61021361026a366004610d56565b610500565b6101d061027d366004610d76565b6001600160a01b03165f9081526020819052604090205490565b610213610565565b600854610244906001600160a01b031681565b6005546001600160a01b0316610244565b610193610578565b6101bc6102d9366004610d76565b600c6020525f908152604090205460ff1681565b6102136102fb366004610d1d565b610587565b61021361030e366004610d56565b6105e2565b6101bc610321366004610d76565b600d6020525f908152604090205460ff1681565b6101bc610343366004610cbb565b6105f5565b6101d0600b5481565b6101bc61035f366004610d76565b600e6020525f908152604090205460ff1681565b6101d0600a5481565b6101d060075481565b6101d0610393366004610d96565b6001600160a01b039182165f90815260016020908152604080832093909416825291909152205490565b6102136103cb366004610d76565b610602565b6060600380546103df90610dc7565b80601f016020809104026020016040519081016040528092919081815260200182805461040b90610dc7565b80156104565780601f1061042d57610100808354040283529160200191610456565b820191905f5260205f20905b81548152906001019060200180831161043957829003601f168201915b5050505050905090565b5f3361046d81858561063f565b60019150505b92915050565b5f33610486858285610651565b6104918585856106cd565b506001949350505050565b6104a461072a565b6001600160a01b03919091165f908152600c60205260409020805460ff1916911515919091179055565b6104d661072a565b6001600160a01b03919091165f908152600d60205260409020805460ff1916911515919091179055565b61050861072a565b6014821115801561051a575060148111155b61055a5760405162461bcd60e51b815260206004820152600c60248201526b54617820746f6f206869676560a01b60448201526064015b60405180910390fd5b600691909155600755565b61056d61072a565b6105765f610757565b565b6060600480546103df90610dc7565b61058f61072a565b6001600160a01b0382165f818152600e6020526040808220805460ff191685151590811790915590519092917fffa9187bf1f18bf477bd0ea1bcbb64e93b6a98132473929edfce215cd9b16fab91a35050565b6105ea61072a565b600a91909155600b55565b5f3361046d8185856106cd565b61060a61072a565b6001600160a01b03811661063357604051631e4fbdf760e01b81525f6004820152602401610551565b61063c81610757565b50565b61064c83838360016107a8565b505050565b6001600160a01b038381165f908152600160209081526040808320938616835292905220545f198110156106c757818110156106b957604051637dc7a0d960e11b81526001600160a01b03841660048201526024810182905260448101839052606401610551565b6106c784848484035f6107a8565b50505050565b6001600160a01b0383166106f657604051634b637e8f60e11b81525f6004820152602401610551565b6001600160a01b03821661071f5760405163ec442f0560e01b81525f6004820152602401610551565b61064c83838361087a565b6005546001600160a01b031633146105765760405163118cdaa760e01b8152336004820152602401610551565b600580546001600160a01b038381166001600160a01b0319831681179093556040519116919082907f8be0079c531659141344cd1fd0a4f28419497f9722a3daafe3b4186f6b6457e0905f90a35050565b6001600160a01b0384166107d15760405163e602df0560e01b81525f6004820152602401610551565b6001600160a01b0383166107fa57604051634a1406b160e11b81525f6004820152602401610551565b6001600160a01b038085165f90815260016020908152604080832093871683529290522082905580156106c757826001600160a01b0316846001600160a01b03167f8c5be1e5ebec7d5bd14f71427d1e84f3dd0314c0f7b2291e5b200ac8c7c3b9258460405161086c91815260200190565b60405180910390a350505050565b6001600160a01b038316158061089757506001600160a01b038216155b156108a75761064c838383610b45565b6001600160a01b0383166108cd5760405162461bcd60e51b815260040161055190610dff565b6001600160a01b0382166108f35760405162461bcd60e51b815260040161055190610dff565b6001600160a01b0383165f908152600d602052604090205460ff1615801561093357506001600160a01b0383165f908152600d602052604090205460ff16155b15610a6457600a54811061099e5760405162461bcd60e51b815260206004820152602c60248201527f5472616e7366657220616d6f756e742065786365656473206d61785472616e7360448201526b1858dd1a5bdb905b5bdd5b9d60a21b6064820152608401610551565b6001600160a01b0382165f908152600e602052604090205460ff16806109db57506001600160a01b0383165f908152600e602052604090205460ff165b15610a6457600b5481610a02846001600160a01b03165f9081526020819052604090205490565b610a0c9190610e57565b1115610a645760405162461bcd60e51b815260206004820152602160248201527f52656369706965742065786365656473206d61782077616c657420616d6f756e6044820152601d60fa1b6064820152608401610551565b6001600160a01b0383165f908152600d602052604081205460ff16158015610aa457506001600160a01b0383165f908152600c602052604090205460ff16155b15610b07576001600160a01b0384165f908152600e602052604090205460ff1615610aea57606460065483610ad99190610e6a565b610ae39190610e81565b9050610b07565b606460075483610afa9190610e6a565b610b049190610e81565b90505b8015610b3e57600854610b259085906001600160a01b031683610b45565b610b398484610b348486610ea0565b610b45565b6106c7565b6106c78484845b6001600160a01b038316610b6f578060025f828254610b649190610e57565b90915550610bdf9050565b6001600160a01b0383165f9081526020819052604090205481811015610bc15760405163391434e360e21b81526001600160a01b03851660048201526024810182905260448101839052606401610551565b6001600160a01b0384165f9081526020819052604090209082900390555b6001600160a01b038216610bfb57600280548290039055610c19565b6001600160a01b0382165f9081526020819052604090208054820190555b816001600160a01b0316836001600160a01b03167fddf252ad1be2c89b69c2b068fc378daa952ba7f163c4a11628f55a4df523b3ef83604051610c5e91815260200190565b60405180910390a3505050565b602081525f82518060208401528060208501604085015e5f604082850101526040601f19601f83011684010191505092915050565b80356001600160a01b0381168114610cb6575f5ffd5b919050565b5f5f60408385031215610ccc575f5ffd5b610cd583610ca0565b946020939093013593505050565b5f5f5f60608486031215610cf5575f5ffd5b610cfe84610ca0565b9250610d0c60208501610ca0565b929592945050506040919091013590565b5f5f60408385031215610d2e575f5ffd5b610d3783610ca0565b915060208301358015158114610d4b575f5ffd5b809150509250929050565b5f5f60408385031215610d67575f5ffd5b50508035926020909101359150565b5f60208284031215610d86575f5ffd5b610d8f82610ca0565b9392505050565b5f5f60408385031215610da7575f5ffd5b610db083610ca0565b9150610dbe60208401610ca0565b90509250929050565b600181811c90821680610ddb57607f821691505b602082108103610df957634e487b7160e01b5f52602260045260245ffd5b50919050565b60208082526024908201527f45524332303a7472616e736665722066726f6d20746865207a65726f206164646040820152637265737360e01b606082015260800190565b634e487b7160e01b5f52601160045260245ffd5b8082018082111561047357610473610e43565b808202811582820484141761047357610473610e43565b5f82610e9b57634e487b7160e01b5f52601260045260245ffd5b500490565b8181038181111561047357610473610e4356fea26469706673582212204b78063d3dbb536212394fd30cd9b207851ffd6591151a1f9da9228f817bea6664736f6c634300081c003345524332303a7472616e736665722066726f6d20746865207a65726f20616464",
  "linkReferences": {},
  "deployedLinkReferences": {},
  "immutableReferences": {},
  "inputSourceName": "project/contracts/ShibaInuStyleToken.sol",
  "buildInfoId": "solc-0_8_28-1e880714f8a8996c7bd30fc988dee0f078e6ac4f"
}